:020000040000FA
:020000000528D1
:06000A00031383168601BA
:10001000FF30870083128601B001B101B201B30144
:10002000B401B501B601B7017620071C1B28FA30D0
:10003000B00006142128300803192128B00B21280C
:100040000610871C2728FA30B10086142D283108A5
:1000500003192D28B10B2D288610071D3328FA30DF
:10006000B20006153928320803193928B20B39288D
:100070000611871D3F28FA30B3008615452833083E
:1000800003194528B30B45288611071E4B28FA3063
:10009000B40006165128340803195128B40B51280E
:1000A0000612871E5728FA30B50086165D283508D7
:1000B00003195D28B50B5D288612071F6328FA30E7
:1000C000B60006176928360803196928B60B69288F
:1000D0000613871F6F28FA30B70086177528370870
:1000E00003197528B70B7528861314286430A500EA
:0E00F0004230A600A60B7A28A50B782808003F
:02400E00BB3FB6
:00000001FF
