:020000040000FA
:020000000528D1
:06000A000313831606300B
:100010009F00FF30860088010710871007118711A5
:100020008712403094000730810083122030940002
:1000300007150714EF220710EF220714EF220130F3
:100040006A22EF2211306A22EF223A306A225530BA
:100050006D2229306A222A306A2200306D226D22F8
:1000600000306D22EF306D222B306A2200306D227D
:100070006D226D2200306D2201306D223F306D22E5
:100080002C306A2287140711F030F2000430F3009C
:100090005030F4008C11030193008C1D4D288C11FD
:1000A000030193008C1D5228F40B4A28F30B4828B7
:1000B000F20B46280715203084008001840A2C307A
:1000C0000402031D5D28C101C2010730C30078206E
:1000D00075210230D000D100D400D500FF30E400FB
:1000E000E500B221C108031D7428752289217228F8
:1000F0002430D9000730C4000108C500193045027A
:10010000031C8428C5007E284508D600D10105308F
:100110005602031C8E28D600D10A87285608D00024
:10012000A12058080005031D9B2858088004EF22D1
:10013000C40B7C280800C50A193045020318C50104
:1001400084285108D7005008D600D7080319AC28D6
:100150000530D607D70BA8285608D7000310D70CB0
:100160000310D70C0310D70C0730D70559085707D1
:10017000840007305605D7000130D800D70803198E
:1001800008000310D80DD70BC1280800FC01FF3070
:10019000FD00FF30FE00FE08031DD228FD08031DF0
:1001A000D228E22850087E07FA0005307A020318A8
:1001B000E22851087D07FB0005307B020318E22886
:1001C000EE20FC07FE0A02307E02031DCB28FD0A4A
:1001D00002307D02031DC9287C0808005008F80081
:1001E0005108F9007A08D0007B08D1002430D900EA
:1001F000A120580800050030031D0130FF007808D9
:10020000D0007908D1007F0808002830D900A1204B
:100210005808000508002430D900A120580800051E
:1002200008002830D900A120580880040800472180
:100230005008FA005108FB00FB08031925297A0829
:10024000D0007B08D100D10347217A08D0007B0879
:10025000D100D10A0530510203182F294721FA088D
:10026000031938297A08D0007B08D100D003472130
:100270007A08D0007B08D100D00A0530500203185C
:10028000422947217A08D0007B08D10008000521C7
:10029000031D08002030D900A12058080005031DC7
:1002A00008000B21031D08001121C20AC6200622E6
:1002B000B22108004308193C4202031D0800013026
:1002C000C1000030D0000030D1000730E400E03041
:1002D000E500B221D10A05305102031D6529D00A7B
:1002E00005305002031D632908000030D0000030A3
:1002F000D1008430E4001030E500B221D10A05308D
:100300005102031D7929D00A05305002031D7729B7
:10031000080050085406031D922951085506031D74
:10032000922908000521031DA6292030D900A1200B
:1003300058080005031DA1298430E4001030E500B1
:10034000A829FF30E400E030E500A829C6200622F5
:10035000B2215408D0005508D100FF30E400E50078
:10036000B22108005008F500750EF039E000500881
:10037000F5000310F50D0310F50D0310F50D7508CC
:10038000E0073C30E0076008153EE1005108F50049
:10039000750EF039E2005108F5000310F50D031059
:1003A000F50D0310F50D7508E2075030E2076208FD
:1003B000153EE3002A306A2200306D2260086D226B
:1003C00000306D2261086D222B306A2200306D22D0
:1003D00062086D2200306D2263086D222C306A2283
:1003E000871407111630E6001630E7008C116408F8
:1003F00093008C1DF9298C11650893008C1DFE2932
:10040000E70BF629E60BF42907150800F600F608B5
:100410000319272A0130760203192B2A02307602AB
:100420000319302A033076020319352A0430760284
:1004300003193A2A0530760203193F2A063076025C
:100440000319442A073076020319492A4E2A00303C
:10045000E400E50008000730E400E030E5000800B3
:100460000030E4001F30E5000800FC30E4000030FC
:10047000E5000800F830E4000030E5000800F8303E
:10048000E4001F30E50008000730E400FF30E5001D
:1004900008007830E4001F30E50008008430E400F4
:1004A0000030E50008000030D0000030D1000B2102
:1004B00003195F2AF830E4000030E500B221D10AC8
:1004C00005305102031D572AD00A05305002031D82
:1004D000552A0800871007116F2A871407118C11FD
:1004E00093008C1D712A07150800861F782AEB2AB5
:1004F000C108031D08005008D4005108D500861D0E
:10050000872A043054020319E52AD40AE52A861CF6
:100510008E2A54080319E52AD403E52A061D962AD3
:10052000043055020319E52AD50AE52A061C9D2A3E
:1005300055080319E52AD503E52A061EBA2A05211E
:10054000031DE52A2030D900A1205808800658084C
:1005500000050319B02AFF30E400E030E500B42ABA
:100560008430E4001030E500B221FF30E400E50003
:10057000B221E52A061FEA2A2030D900A120580816
:100580000005031DE52A0521031DE52A0B2103199A
:10059000E32A0230C100F830E4000030E500B22167
:1005A00053220330F500EF22EF22FF30E400E50094
:1005B000B221EF22EF22F830E4000030E500B22152
:1005C000F50BD32AEA2A17215A21EF220608FF3910
:1005D000031DE52A0800EF22861BEB2A5B28643006
:1005E000F0004230F100F10BF32AF00BF12A080081
:02400E00BB3FB6
:00000001FF
