:020000040000FA
:020000000528D1
:06000A000313831606300B
:100010009F00FF30860088010710871007118711A5
:100020008712403094008312203094000715071483
:10003000BF230710BF230714BF2301301E23BF2394
:1000400011301E23BF233A301E235530212329307F
:100050001E232A301E2300302123003021230030AC
:100060002123EF3021232B301E23003021230030A9
:100070002123013021233F3021232C301E238714DC
:100080000711F030F2000430F3005030F4008C110E
:10009000003093008C1D4A288C11003093008C1D79
:1000A0004F28F40B4728F30B4528F20B432807157C
:1000B000203084008001840A47300402031D5A283E
:1000C000A001A101A2010A30A30078204122C12190
:1000D0000430D000D100D400D500FF30E400E500AA
:1000E0007E22A108031D772829235522712877280D
:1000F0002D30D9000130D000D100BD205808800437
:100100000530D000D100BD20580880040830D00050
:100110000230D100BD20580880040330D0000730E1
:10012000D100BD20580880040030D000D100BD208F
:10013000580880040930D000D100BD205808800440
:100140000230D0000430D100BD20580880040630B1
:10015000D0000130D100BD20580880040430D00008
:100160000830D100BD20580880040730D00003308B
:10017000D100BD205808800408005108D70050085D
:10018000D600D7080319C8280A30D607D70BC428C9
:100190005608D7000310D70C0310D70C0310D70C48
:1001A0001F30D70559085707840007305605D70078
:1001B0000130D800D7080319E1280310D80DD70B58
:1001C000DD280800FC01FF30FD00FF30FE00FE08C6
:1001D000031DEE28FD08031DEE28FE2850087E07AB
:1001E000FA000A307A020318FE2851087D07FB0046
:1001F0000A307B020318FE280A21FC07FE0A02309F
:100200007E02031DE728FD0A02307D02031DE5285A
:100210007C0808005008F8005108F9007A08D0005E
:100220007B08D1002D30D900BD20580800050030D2
:10023000031D0130FF007808D0007908D1007F0845
:1002400008003A30D900BD205808000508002D30BC
:10025000D900BD205808000508002121031D080011
:100260002030D900BD2058080005031D08003A3091
:10027000D900BD2058088004A20AE220BA227E22BA
:10028000FC08031D0800452108005008B000510873
:10029000B1003008B4003108B500B508031952297F
:1002A000B50374213008B4003108B500B50A0A302E
:1002B000350203185C2974213008B4003108B500F8
:1002C000B40803196529B40374213008B400310857
:1002D000B500B40A0A30340203186F2974213008BB
:1002E000D0003108D10008003408D0003508D10012
:1002F0003A30D900BD2058080005031D0800203001
:10030000D900BD2058080005031D08002D30D90074
:10031000BD2058080005031DA3293A30D900BD208F
:1003200058088004A20AE220BA227E22FC08031D9B
:1003300008003408B2003508B30045213208B40083
:100340003308B500080008002308F6006430760280
:100350002202031D08000130A1000030D00000304F
:10036000D1000730E400E030E5007E22D10A0A30F7
:100370005102031DB129D00A0A305002031DAF29D2
:1003800008000030E400E5000030D000092207300A
:10039000E400E030E5000130D0000922FF30E40045
:1003A000E030E5000230D0000922FC30E4000030EB
:1003B000E5000330D0000922F830E4000030E50009
:1003C0000430D0000922F830E4001F30E500053089
:1003D000D00009220030E4001F30E5000630D000D4
:1003E00009227830E4001F30E5000730D0000922F0
:1003F0008430E4000030E5000830D0000922F830F5
:10040000E4000030E5000930D0000922D001D1011C
:1004100008005008F500750EF039083EE0000D3E6A
:10042000E100DC30E200E930E3002A301E23003036
:1004300021236008212300302123610821232B3050
:100440001E2300302123620821230030212363086A
:1004500021232C301E23871407110E30E6000E30A6
:10046000E7008C11640893008C1D342A8C116508F8
:1004700093008C1D392AE70B312AE60B2F2A07152A
:1004800008000030D0000030D1008430E40010308B
:10049000E5007E22D10A0A305102031D452AD00A06
:1004A0000A305002031D432A080050085406031D59
:1004B0005E2A51085506031D5E2A08002121031DEE
:1004C000722A2030D900BD2058080005031D6D2A6E
:1004D0008430E4001030E500742AFF30E400E0309E
:1004E000E500742AE220BA227E225408D000550882
:1004F000D100FF30E400E5007E2208005008F5003E
:10050000750EF039283EE0000D3EE1005108F5007F
:10051000750EF039283EE2000D3EE3002A301E231E
:10052000003021236008212300302123610821238A
:100530002B301E2300302123620821230030212389
:10054000630821232C301E23871407110E30E60088
:100550000E30E7008C11640893008C1DAD2A8C11BD
:10056000650893008C1DB22AE70BAA2AE60BA82A7D
:1005700007150800F600F6080319DB2A0130760299
:100580000319DF2A023076020319E42A03307602C7
:100590000319E92A043076020319EE2A053076029F
:1005A0000319F32A063076020319F82A0730760277
:1005B0000319FD2A022B0030E400E5000800073093
:1005C000E400E030E5000800FF30E4001F30E50003
:1005D0000800FC30E4000030E5000800F830E400DA
:1005E0000030E5000800F830E4001F30E5000800A6
:1005F0000030E4001F30E50008007830E4001F30D0
:10060000E50008008430E4000030E5000800003018
:10061000D0000030D10027210319132BF830E4005B
:100620000030E5007E22D10A0A305102031D0B2B57
:10063000D00A0A305002031D092B08008710071149
:10064000232B871407118C1193008C1D252B071564
:100650000800861F2D2BA2230800A108031D0800F7
:100660005008D4005108D500861D3C2B0930540297
:1006700003199C2BD40A9C2B861C432B540803196A
:100680009C2BD4039C2B061D4B2B093055020319C0
:100690009C2BD50A9C2B061C522B550803199C2B0E
:1006A000D5039C2B061E712B2121031D9C2B203072
:1006B000D900BD2058088006580800050319652B8D
:1006C000FF30E400E030E500692B8430E4001030B6
:1006D000E5007E22BF23BF23FF30E400E5007E2239
:1006E0009C2B061FA12B2030D900BD2058080005E7
:1006F000031D9C2B2121031D9C2B272103199A2BC1
:100700000230A100F830E4000030E5007E2207232B
:100710000330F500BF23BF23FF30E400E5007E2255
:10072000BF23BF23F830E4000030E5007E22F50B44
:100730008A2BA12B2D21A421BF230608FF39031DDD
:100740009C2B0800BF23861BA22B20308400800135
:10075000840A47300402031DA72BA001A101A201B6
:100760000A30A3000430D000D100D400D500782096
:100770004122C121FF30E400E5007E220800643000
:10078000F0004230F100F10BC32BF00BC12B08003D
:02400E00BB3FB6
:00000001FF
