:020000040000FA
:020000000528D1
:06000A000313831606300B
:100010009F0000308500FF3087008312003085008C
:10002000871C182801308506412087181528412093
:10003000071D202802308506412007191D28412070
:10004000871D28280430850641208719252841204E
:10005000071E3028083085064120071A2D28412028
:10006000871E3828103085064120871A3528412000
:10007000071F4028203085064120071B3D284120CE
:1000800010286430A000C830A100A10B4528A00BA7
:0400900043280800F9
:02400E00BB3FB6
:00000001FF
